:100000000C94BE020C94EF020C94EF020C94EF02DD
:100010000C94EF020C94EF020C94EF020C94EF029C
:100020000C94EF020C94EF020C94EF020C94EF028C
:100030000C94EF020C94EF020C94EF020C94EF027C
:100040000C94EF020C94EF020C94EF020C94EF026C
:100050000C94EF020C94EF020C94EF020C94311C00
:100060000C94EF020C94A51C0C947B1C0C94EF02D6
:100070000C94EF020C94EF020C94EF020C94EF023C
:100080000C94EF020C94EF020C94EF020C94EF022C
:100090000C94EF020C94EF020C94EF020C94EF021C
:1000A0000C94EF020C94EF020C94EF020C94EF020C
:1000B0000C94EF020C94EF020C94EF020C94EF02FC
:1000C0000C94EF020C94EF020C94EF020C94EF02EC
:1000D0000C94EF020C94EF020C94EF020C94EF02DC
:1000E0000C94EF020C94B3030C9446040C943C0B58
:1000F0000C949A050C9450040C94610D0C94EF062A
:100100000C94CA0A0C94170D0C947A090C941209D9
:100110000C943D0D0C94FE1C0C942A040C94DD16DA
:100120000C94BC050C94BF180C945E030C94C50D84
:100130000C94970D0C94D7090C9474030C94F6133B
:100140000C94D20D0C94A80E0C94EB090C94E90AB3
:100150000C943E0A0C94F60D0C949C0E0C94B70D66
:100160000C9490190C946E170C94FF030C942604B5
:100170000C943E040C941D040C9469030C94470BDE
:100180000C9419040C9465140C948A030C942B0D94
:100190000C944C040C9438040C947F030C94B81504
:1001A0000C94A90D0C94190D0C9434060C944F0D5D
:1001B0000C9411040C943D190C949F030C944A0365
:1001C0000C94850D0C945B050C94B4090C94F413F9
:1001D0000C94730D0C945D0A0C94290B0C946E19FD
:1001E0000C94DC190C9487040C9455240C94451B36
:1001F0000C9448030C9434040C94E40D0C94D20E2B
:100200000C9420040C94FC140C9430040C94060DF3
:100210000C94C6170C948B050C9488050C94AE05B1
:100220000C9415040C94A2060C9442040C94FB1735
:100230000C949A090C94FA03000020002300260075
:1002400029002C002F0032000001000003010601EC
:100250000901005EBCE2613FDD83C29C7E20A3FDFC
:100260001F41009D23BE46DB65F88C11AF32CA5793
:10027000E97400C0C101C30302C2C60607C705C5B1
:10028000C404CC0C0DCD0FCFCE0E0ACACB0BC909BE
:1002900008C8D81819D91BDBDA1A1EDEDF1FDD1DCE
:1002A0001CDC14D4D515D71716D6D21213D311D1FE
:1002B000D010F03031F133F3F23236F6F737F5354E
:1002C00034F43CFCFD3DFF3F3EFEFA3A3BFB39F97E
:1002D000F83828E8E929EB2B2AEAEE2E2FEF2DED4E
:1002E000EC2CE42425E527E7E62622E2E323E121BE
:1002F00020E0A06061A163A3A26266A6A767A565CE
:1003000064A46CACAD6DAF6F6EAEAA6A6BAB69A93D
:10031000A86878B8B979BB7B7ABABE7E7FBF7DBD4D
:10032000BC7CB47475B577B7B67672B2B373B1717D
:1003300070B050909151935352929656579755954D
:1003400094549C5C5D9D5F9F9E5E5A9A9B5B9959FD
:100350005898884849894B8B8A4A4E8E8F4F8D4DCD
:100360004C8C44848545874746868242438341813D
:10037000804000C1814001C0804101C0804100C176
:10038000814001C0804100C1814000C1814001C065
:10039000804101C0804100C1814000C1814001C055
:1003A000804100C1814001C0804101C0804100C145
:1003B000814001C0804100C1814000C1814001C035
:1003C000804100C1814001C0804101C0804100C125
:1003D000814000C1814001C0804101C0804100C115
:1003E000814001C0804100C1814000C1814001C005
:1003F000804101C0804100C1814000C1814001C0F5
:10040000804100C1814001C0804101C0804100C1E4
:10041000814000C1814001C0804101C0804100C1D4
:10042000814001C0804100C1814000C1814001C0C4
:10043000804100C1814001C0804101C0804100C1B4
:10044000814001C0804100C1814000C1814001C0A4
:10045000804101C0804100C1814000C1814001C094
:10046000804100C1814001C0804101C0804100C184
:10047000814000002100240027002A002D003000C8
:10048000330001010000040107010A0100002200FD
:10049000250028002B002E0031003400020100004E
:1004A000050108010B0105050505070508080808F1
:1004B000020202020A0A08080404040401010101FC
:1004C00001010101030303030303030304070707F7
:1004D0000C0C0C0C0C0C0C0C02020202060606069C
:1004E000060606060B0B0B0B0B0B0B0B0102102069
:1004F000200808102040102040800201020108045A
:1005000002010102040810204080804020100804ED
:100510000201800402018040201008040201080446
:10052000020101020408102040800102040810208A
:10053000408000000A0B02090C0D0E08070304019D
:1005400000000000000000000000000000000000AB
:100550000000000000000000000000000000121178
:10056000100000000000000000000000000000007B
:100570000000000000000000FE1C552411241FBED6
:10058000CFEFD1E2DEBFCDBF00E00CBF27E0A4E695
:10059000B5E001C01D92AA38B207E1F715E0A0E06E
:1005A000B2E0EEECF9E500E00BBF02C007900D925F
:1005B000A436B107D9F712E0CDEBD2E000E006C0D7
:1005C00021970109802FFE010E94DF25CC3BD10736
:1005D00080E00807A9F70E94641F0C94D52C0C94A6
:1005E00000002091720730917307821793074CF037
:1005F0004091700750917107420F531F8417950760
:1006000054F084EE9BE290937F0780937E076FEF18
:100610007FEFCB010895821B930B880F991F2091C8
:100620007A0730917B07820F931FFC0160817181F3
:1006300090E080E008950E94F102CB01089520919E
:10064000720730917307821793074CF0409170073F
:1006500050917107420F531F841795074CF084EE99
:100660009BE290937F0780937E0790E080E008955F
:10067000821B930B880F991F20917A0730917B077B
:10068000820F931FFC017183608381E090E00895E5
:1006900081E00895FC01808D882349F0848595854B
:1006A000DC01ED91FC910190F081E02D199481E045
:1006B00090E09383828390E080E00895DC011C96B3
:1006C0008D919C91DC01ED91FC910680F781E02DEC
:1006D0001994DC011C968D919C91DC01ED91FC91AB
:1006E0000284F385E02D1994DC011C968D919C9178
:1006F000DC01ED91FC910484F585E02D1994DC0179
:100700001C968D919C91DC01ED91FC910084F1850A
:10071000E02D1994EF92FF920F931F93DC01ED915E
:10072000FC910488F589E02DA2E3EA2EF12C02E386
:1007300010E019951F910F91FF90EF900895EF929F
:10074000FF920F931F93DC01ED91FC910488F589D2
:10075000E02D7801890126E030E019951F910F9175
:10076000FF90EF900895EF92FF920F931F93DC019B
:10077000ED91FC910488F589E02D22E3E22EF12C25
:1007800002E310E026E030E019951F910F91FF90F1
:10079000EF900895282F30E0F901EE5CFA4F949124
:1007A000F901E451FB4F44912A553B4FF901249143
:1007B000222309F435C0992311F191509231F8F4B4
:1007C000E92FF0E08827E851FC4F8F4F0C94DF258C
:1007D00019041D04FA0311041504FF032004260460
:1007E0002A043004340438043E044204FF0346045F
:1007F0004C045004809180008F7780938000E22F1A
:10080000F0E0EE0FFF1FE457FB4FA591B4918FB7B7
:10081000F894EC91611148C040954E234C938FBFE2
:100820000895809180008F7DE8CF80918000877F40
:10083000E4CF84B58F7784BDE2CF84B58F7DFBCFC5
:100840008091B0008F778093B000D9CF8091B000B5
:100850008F7DF9CF809190008F7780939000CFCFDC
:10086000809190008F7DF9CF80919000877FF5CFA8
:100870008091A0008F778093A000C1CF8091A000CD
:100880008F7DF9CF8091A000877FF5CF80912001E7
:100890008F7780932001B3CF809120018F7DF9CF96
:1008A00080912001877FF5CF4E2BB8CFCF93DF9378
:1008B00090E0FC01E451FB4F24918A559B4FFC01D1
:1008C00084918823D1F090E0880F991FFC01EE58A5
:1008D000FB4FA591B491FC01E457FB4FC591D49116
:1008E00061110EC09FB7F8948C91E22FE0958E2392
:1008F0008C932881E223E8839FBFDF91CF910895F5
:100900008FB7F894EC91E22BEC938FBFF6CF0F9357
:100910001F93CF93DF938C01FC01C485D585E881BB
:10092000F9810680F781E02DCE011995EA89FB89CE
:1009300080818F7E8083EA89FB898081877F8083A5
:10094000EA89FB8980818F778083EA89FB898081AE
:100950008F7D80838A8D898FF8018089918997FDA9
:1009600008C060E00E94CA0360E0F80180890E942C
:100970005604F8018289938997FD0CC060E00E94BB
:10098000CA0360E0F8018289DF91CF911F910F9136
:100990000C945604DF91CF911F910F9108958633E7
:1009A00008F0865320917B00982F9870277F922B18
:1009B00090937B008770806480937C0080917A00A4
:1009C000806480937A0080917A0086FDFCCF8091CC
:1009D00078009091790008958230910538F0880F61
:1009E000991F880F991F05970197F1F708953FB751
:1009F000F8948091790590917A05A0917B05B0914A
:100A00007C0526B5A89B05C02F3F19F00196A11DB6
:100A1000B11D3FBFBA2FA92F982F8827BC01CD0148
:100A2000620F711D811D911D42E0660F771F881FA7
:100A3000991F4A95D1F708958F929F92AF92BF92D6
:100A4000CF92DF92EF92FF926B017C010E94F7043C
:100A50004B015C01C114D104E104F104B9F00E941E
:100A6000F704681979098A099B09683E7340810572
:100A7000910580F321E0C21AD108E108F10888EE5F
:100A8000880E83E0981EA11CB11CE4CFFF90EF906C
:100A9000DF90CF90BF90AF909F908F9008952FB729
:100AA000F894609175057091760580917705909125
:100AB00078052FBF0895AF92BF92CF92DF92EF9249
:100AC000FF920F931F93CF93DF936C017B018B01F8
:100AD000040F151FEB015E01AE18BF08C017D10748
:100AE00059F06991D601ED91FC910190F081E02DD2
:100AF000C6011995892B79F7C501DF91CF911F9117
:100B00000F91FF90EF90DF90CF90BF90AF9008953E
:100B100090E080E00895FC01538D448D252F30E056
:100B2000842F90E0821B930B541710F0CF960895FA
:100B300001970895FC01918D828D981761F0A28D27
:100B4000AE0FBF2FB11D5D968C91928D9F5F9F73ED
:100B5000928F90E008958FEF9FEF0895FC01918DA3
:100B6000828D981731F0828DE80FF11D858D90E010
:100B700008958FEF9FEF0895FC01918D228D892FAD
:100B800090E0805C9F4F821B91098F739927089595
:100B900083EA95E00E94BC0521E0892B09F420E05E
:100BA000822F0895CF92DF92EF92FF921F93CF93FF
:100BB000DF93EC016A017B01122FE889F98982E059
:100BC0008083C11481EED806E104F104A1F060E055
:100BD00079E08DE390E0A70196010E94BD252150A8
:100BE00031094109510956954795379527952115A2
:100BF00080E1380798F0E889F989108260E874E8A4
:100C00008EE190E0A70196010E94BD252150310997
:100C1000410951095695479537952795EC85FD85EE
:100C20003083EE85FF852083188EEC89FD89108343
:100C3000EA89FB89808180618083EA89FB898081E0
:100C400088608083EA89FB89808180688083EA8963
:100C5000FB8980818F7D8083DF91CF911F91FF90F1
:100C6000EF90DF90CF9008958F929F92AF92BF92B6
:100C7000DF92EF92FF920F931F93CF93DF93EC01DC
:100C80004A015B01D22E898E9A8EAB8EBC8E2D8F3F
:100C90003E8F8C899D89009709F08C010C8B1D8BF0
:100CA0008E899F89009709F07C01EE8AFF8A8889E6
:100CB000998997FD07C061E00E94560460E0888929
:100CC0000E94CA038A899B8997FD07C061E00E9440
:100CD000560461E08A890E94CA03188E2D2DB50141
:100CE000A4018C859D85DF91CF911F910F91FF907D
:100CF000EF90DF90BF90AF909F908F900C94D205B3
:100D0000FC01A48DA80FB92FB11DA35ABF4F2C9180
:100D1000848D90E001968F739927848FA689B78977
:100D20002C93A089B1898C91837080648C93938D6E
:100D3000848D981306C00288F389E02D80818F7D11
:100D400080830895EF92FF920F931F93CF93DF93C9
:100D5000EC0181E0888F9B8D8C8D98131AC0E889F7
:100D6000F989808185FF15C09FB7F894EE89FF89C6
:100D70006083E889F98980818370806480839FBF64
:100D800081E090E0DF91CF911F910F91FF90EF9064
:100D90000895F62E0B8D10E00F5F1F4F0F73112774
:100DA000E02E8C8D8E110CC00FB607FCFACFE889AF
:100DB000F989808185FFF5CFCE010E948006F1CFB1
:100DC000EB8DEC0FFD2FF11DE35AFF4FF0829FB723
:100DD000F8940B8FEA89FB8980818062CFCFCF9313
:100DE000DF93EC01888D8823B9F0AA89BB89E88953
:100DF000F9898C9185FD03C0808186FD0DC00FB6F9
:100E000007FCF7CF8C9185FFF2CF808185FFEDCF76
:100E1000CE010E948006E9CFDF91CF91089580E056
:100E200090E0892B29F00E94C80581110E940000E2
:100E300080E090E0892B49F080E090E0892B29F058
:100E40000E94000081110E94000080E090E0892B48
:100E500049F080E090E0892B29F00E940000811188
:100E60000E94000080E090E0892B49F080E090E053
:100E7000892B29F00E94000081110C940000089534
:100E8000009741F0DC015896ED91FC9104A0F5A18A
:100E9000E02D19940895009741F0DC015896ED91EA
:100EA000FC91068CF78DE02D19940895009741F080
:100EB000DC015896ED91FC91048CF58DE02D199490
:100EC00086E190E090937F0780937E078FEF9FEFFE
:100ED0000895009741F0DC015896ED91FC9100A037
:100EE000F1A1E02D199486E190E090937F07809323
:100EF0007E078FEF9FEF0895CF93DF93EC01288556
:100F000039854A855B85A8EEB3E00E948F250E9453
:100F10001C058C859D85DF91CF910C94EC042F925C
:100F20003F924F925F926F927F928F929F92AF9279
:100F3000BF92CF92DF92EF92FF920F931F93CF93C6
:100F4000DF9300D000D000D01F92CDB7DEB77C0178
:100F50003B012A01DC015896ED91FC9159970281E1
:100F600013810F5F1F4F312C212C452BB1F01896A8
:100F70008D919D910D90BC91A02D89839A83AB8317
:100F8000BC83F70184859585A685B7858D839E836F
:100F9000AF83B887CE0101961C01D12CC12C912CB6
:100FA000812CD7015896ED91FC910115110549F45A
:100FB000008CF18DE02DA401B301C70119955C01EE
:100FC00029C002A0F3A1E02D9801A101BE01675F35
:100FD0007F4FC70119955C01D7019FEFA916B9068C
:100FE000F1F516968C9181FD04C0AA24AA94BA2C1E
:100FF00011C000917E0710917F070437110521F57C
:10100000C7010E947C07C7010E94690710937F07F0
:1010100000937E07C5012A960FB6F894DEBF0FBE77
:10102000CDBFDF91CF911F910F91FF90EF90DF9097
:10103000CF90BF90AF909F908F907F906F905F9078
:101040004F903F902F900895023FBDE21B07F1F6AD
:10105000C7010E944B07C7010E945607D7CF589679
:10106000ED91FC910688F789E02DA801B301680D88
:10107000791DC70119956115710509F582EF9DE28A
:1010800090937F0780937E07F701868181FFADCF24
:1010900000917E0710917F07023FFDE21F0721F0BC
:1010A0000F36110509F0A1CFC7010E944B07C701F8
:1010B0000E94560710937F0700937E0796CF6F3FDD
:1010C000760711F3860E971E061B170B09F099C0C1
:1010D000D7015896ED91FC91C114D10441F0CA9406
:1010E000CD2809F457C082E0C82ED12C5ACFA28156
:1010F000B381A60DB71D8C9141145104B9F490E051
:1011000087309105D4F09C012F50310922303105F0
:1011100008F47CC08631910509F47EC04797D1F56B
:10112000CC24C394D12C09E010E015C0813158F4CF
:101130008F3018F48550823048F4CC24C394D12CDD
:1011400004E010E008C0863109F466C0CC24C394E2
:10115000D12C01E010E0F70140895189628973893F
:1011600084899589A689B78941155105610571055D
:1011700029F40097A105B10509F413CF49835A83D7
:101180006B837C838D839E83AF83B887CE0101966A
:101190001C0107CFA281B381A60DB71D8C9141140C
:1011A000510401F58F3020F08131A8F08731B9F07A
:1011B00084819581080F191F9401200F311F8681AA
:1011C000978182179307D4F48FEE9BE290937F0769
:1011D00080937E070ACF15960C9110E0E9CF1996FF
:1011E0000C91FBCF90E0853091052CF08131910579
:1011F00011F04797E9F611960C91EFCF52E0C52E0A
:10120000D12C101611060CF4A6CFCBCECC24C3944F
:10121000D12C05E010E09FCFCC24C394D12C06E064
:1012200010E099CF6F927F928F929F92AF92BF9270
:10123000CF92DF92EF92FF920F931F93CF93DF93A2
:10124000FA018901DC015A966D907C90C12CD12C59
:1012500076013097C1F02081318142815381A8EE1F
:10126000B3E00E948F256B017C01648175818681CA
:10127000978128EE33E040E050E00E94BD25C20E89
:10128000D31EE41EF51E0E944F054B015C01F301C5
:1012900086819781DC01ED91FC910084F185E02D40
:1012A0001995EC01801791075CF40E944F056819AD
:1012B00079098A099B096C157D058E059F0538F310
:1012C000209741F484E790E090937F0780937E0716
:1012D000CFEFDFEFCE01DF91CF911F910F91FF9004
:1012E000EF90DF90CF90BF90AF909F908F907F90C6
:1012F0006F900895CF93DF93DC015A96CD91DC91E6
:101300008E819F81DC01ED91FC910084F185E02DBF
:101310001995892B51F08E819F81DC01ED91FC9113
:101320000284F385E02D1995EBCF90E080E0DF910A
:10133000CF910895CF93DF93DC015A96CD91DC9144
:10134000EE81FF818289938997FD03C061E00E944D
:10135000CA038E819F81DC01ED91FC910688F7899B
:10136000E02DDF91CF911994CF93DF93DC015A9652
:10137000CD91DC918E819F812C813D814881598165
:101380006A817B81DC01ED91FC910088F189E02D7F
:101390001995EE81FF818289938997FD03C060E0F2
:1013A0000E94CA0390E080E0DF91CF910895FB0195
:1013B0008081FA019081891759F0882349F083EFE1
:1013C0009BE290937F0780937E078FEF9FEF0895B6
:1013D00090E080E008958F929F92AF92BF92CF925B
:1013E000DF92EF92FF920F931F93CF93DF936A01E7
:1013F000DC015A96ED91FC91068117817B01D0E0CA
:10140000C0E0CC15DD0528F50E944F05F801608786
:10141000718782879387D801ED91FC910284F385CF
:10142000E02DC801199597FF24C00E944F05F801CF
:1014300080849184A284B384681979098A099B09FC
:1014400084809580A680B780681579058A059B05FC
:1014500010F3BE0190E080E0DF91CF911F910F91DA
:10146000FF90EF90DF90CF90BF90AF909F908F90C4
:101470000895D7018D937D012196C3CFCF93DF933C
:10148000FC01C28DD38D28853985232B59F041E08D
:1014900050E00E948F071986188690E080E0DF9167
:1014A000CF91089550E040E00E948F070097B9F770
:1014B00021E030E039872887F2CFCF92DF92EF9298
:1014C000FF920F931F93CF93DF937B016A01DC019F
:1014D0005A96CD91DC91EE81FF818289938997FDA7
:1014E00003C061E00E94CA030E811F81F801808958
:1014F000918997FD0BC061E00E94CA03D801549600
:101500008D919C91009711F00E94EC0481E0F8010C
:10151000808F8E819F81DC01ED91FC910280F381AF
:10152000E02DA601B70119956C01F12CE12C0E817B
:101530001F81F80184859585DC01ED91FC91068081
:10154000F781E02D1995F8018089918997FD0CC0EC
:1015500086899789009711F00E94EC0460E0D80119
:1015600050968C910E94CA03F801108EEE81FF8183
:101570008289938997FD03C060E00E94CA03C70176
:10158000B601DF91CF911F910F91FF90EF90DF9007
:10159000CF900895FB018081918102979183808390
:1015A00090E080E00895DC01680F791F8FEF9FEFD6
:1015B000A617B70769F02D91292730E0F901EE58F9
:1015C000FC4F94919827F901EE58FD4F8491F0CF8C
:1015D0000895EF92FF920F931F93CF93DF937C01B7
:1015E000EB018A01888190E0F70120813181281781
:1015F000390711F0892B51F5B80162507109CE01FC
:101600000E94D30AC00FD11FFE013297208121977B
:1016100038812327322723278217930779F0F70190
:10162000868182FF03C0C7010E947A098EEE9BE289
:1016300090937F0780937E070FEF1FEFC801DF9124
:10164000CF911F910F91FF90EF90089510E000E06F
:10165000F5CF0F931F93CF93DF93EC018B010E9483
:10166000D30AC00FD11F98838983C8010296DF91E6
:10167000CF911F910F910895FC012081FB012083E0
:10168000FC018281FB01818382E090E00895683F44
:10169000710530F4FC017183608390E080E008956F
:1016A00086E190E090937F0780937E078FEF9FEF16
:1016B0000895DC0180E0615090F09D919827E92F1A
:1016C000EF70F0E0EE5AFD4F2491E92FE295EF70B4
:1016D000F0E0EE59FD4FE491822F8E27ECCF089574
:1016E000FC011386158614861286118610861782D1
:1016F00016821582148213820895DC012C911196B2
:10170000ED91FC91F8948181822B81839281322F1B
:1017100030959323928387E090E00197F1F78181E0
:101720008323818383E290E00197F1F7908178949D
:10173000EFECF0E03197F1F7922381E009F480E0DB
:101740000895FC0190810180F281E02D292F2095E0
:1017500060FF14C0F8948281822382838181892B67
:101760008183A3E2B0E01197F1F78281982B9283F5
:10177000789487ED90E00197F1F70895F8948281CD
:10178000822382838181892B8183AFEFB0E011971F
:10179000F1F78281982B928378948FE090E0EBCFE1
:1017A000DF92EF92FF920F931F93CF93DF93EC01A1
:1017B000D62EE42E08E010E0FF24F39461E08D2D96
:1017C0008F2109F460E0CE010E94A10BFF0C0150B3
:1017D0001109A1F7E11010C0F894E981FA81918113
:1017E0008881809589238183E981FA81928188812A
:1017F0008095892382837894DF91CF911F910F91F7
:10180000FF90EF90DF900895EF92FF920F931F9358
:10181000CF93DF938C017B0140E065E50E94D00B04
:10182000E70188E0E80EF11C699140E0C8010E94E0
:10183000D00BCE15DF05C1F7DF91CF911F910F912E
:10184000FF90EF900895FC0190810180F281E02DDE
:10185000F8948181292F20958223818378943DE714
:1018600043E050E0315029F1DA011197F1F780811E
:101870008923C1F3F8948281822382838181892B19
:1018800081837894ABE7B7E01197F1F7F894818101
:1018900082238183A3E1B1E01197F1F7808198233E
:1018A00081E009F080E07894E3E6F6E03197F1F723
:1018B000089580E008954F925F926F927F928F9289
:1018C0009F92AF92BF92CF92DF92EF92FF920F93CF
:1018D0001F93CF93DF938C017B01EA01FC0181858B
:1018E00092850E94230C8823D9F1B701F8018185E4
:1018F00092850E94040C40E06EEBF8018185928590
:101900000E94D00B6E015E01F9E0AF0EB11C7E01AA
:10191000F8018184928488E0682E712C512C442433
:101920004394C4010E947D0B81115428440CF1E0C2
:101930006F1A7108B1F7F70151927F01AE16BF0619
:1019400039F7F801818592850E94230C813041F49A
:10195000F60181916F01811105C0EE15FF05C1F7F8
:1019600090E008C068E0CE010E94590B91E0288504
:101970002813F6CF892FDF91CF911F910F91FF9000
:10198000EF90DF90CF90BF90AF909F908F907F901F
:101990006F905F904F900895F89482508D3208F0C8
:1019A00046C0E82FF0E08827E752F34F8F4F0C94A2
:1019B000DF254F0D610DC50D3D0D730D850D970D87
:1019C000A90DB70D060D190D2B0D170D170D170DC0
:1019D000170D170D170D170D170D170D170D170DE7
:1019E000170D170D170D170D170D170D170D170DD7
:1019F000170D170D170D170D170D170D170D170DC7
:101A0000170D170D170DF60DE40DD20DA0918600E0
:101A1000B09187009B010E949A2528EE33E040E0B8
:101A200050E00E94BD25309389002093880078946F
:101A30000895A0918600B09187009B010E949A258D
:101A400028EE33E040E050E00E94BD2530938B004B
:101A500020938A00ECCFA0918600B09187009B0173
:101A60000E949A2528EE33E040E050E00E94BD2518
:101A700030938D0020938C00DACFA0919600B09126
:101A800097009B010E949A2528EE33E040E050E049
:101A90000E94BD253093990020939800C8CFA09153
:101AA0009600B09197009B010E949A2528EE33E0A2
:101AB00040E050E00E94BD2530939B0020939A00A7
:101AC000B6CFA0919600B09197009B010E949A25F5
:101AD00028EE33E040E050E00E94BD2530939D00A9
:101AE00020939C00A4CFA091A600B091A7009B01D9
:101AF0000E949A2528EE33E040E050E00E94BD2588
:101B00003093A9002093A80092CFA091A600B09195
:101B1000A7009B010E949A2528EE33E040E050E0A8
:101B20000E94BD253093AB002093AA0080CFA091E6
:101B3000A600B091A7009B010E949A2528EE33E0F1
:101B400040E050E00E94BD253093AD002093AC00F2
:101B50006ECF9B01AFEFB0E00E949A2528EE33E0F4
:101B600040E050E00E94BD252093B40060CF9B016F
:101B7000AFEFB0E00E949A2528EE33E040E050E05D
:101B80000E94BD252093B30052CF27B530E0DB0182
:101B90000E949A2528EE33E040E050E00E94BD25E7
:101BA00028BD45CFA0912601B09127019B010E943D
:101BB0009A2528EE33E040E050E00E94BD253093A6
:101BC00029012093280133CFA0912601B09127014C
:101BD0009B010E949A2528EE33E040E050E00E94ED
:101BE000BD2530932B0120932A0121CFA0912601FE
:101BF000B09127019B010E949A2528EE33E040E036
:101C000050E00E94BD2530932D0120932C010FCF71
:101C10009B01AC01203385E738074105510508F4E5
:101C20004BC08091B100887F81608093B10080912A
:101C30008100887F81608093810080919100887FFE
:101C40008160809391008091A100887F8160809362
:101C5000A10080912101887F81608093210160E053
:101C600074E284EF90E00E94BD2521153105410505
:101C7000510509F45CC0DA01C9010197A109B10954
:101C800009F455C0009721E0A207B10520F08FEFBD
:101C90009FEFA0E0B0E09093870080938600909340
:101CA0009700809396009093A7008093A60090934E
:101CB000270180932601089520328EE438074105DC
:101CC000510528F08091B100887F8260AECF20312D
:101CD00087E238074105510528F08091B100887FDF
:101CE0008360A3CF283883E138074105510528F0E8
:101CF0008091B100887F846098CF283E83E03807C8
:101D00004105510528F08091B100887F85608DCF15
:101D1000243F81E038074105510528F08091B1004A
:101D2000887F866082CF8091B10087607ECF81E01E
:101D300090E0A0E0B0E0AFCFCF93DF93EC018A8DCD
:101D40009B8D0E94B728CE01DF91CF910C94B728CC
:101D5000CF93DF93EC0183E792E0998388838C89AA
:101D60009D89009711F00E94B7288E899F8900975E
:101D700011F00E94B728888D998D009711F00E946C
:101D8000B7288A8D9B8D009711F00E94B7288A8111
:101D90009B81009721F0DF91CF910C944007DF9158
:101DA000CF910895CF93DF93EC010E94A80ECE014E
:101DB000DF91CF910C94B728BF92CF92DF92EF9230
:101DC000FF920F931F93CF93DF93EC01B62EC72E94
:101DD0008D85811105C0CE010E94230C81110EC09A
:101DE0001B861D861C8680E0DF91CF911F910F918D
:101DF000FF90EF90DF90CF90BF90089540E060EFAC
:101E0000CE010E94D00B01E0E12CD12C11E0CE01DB
:101E10000E947D0BF82ECE010E947D0B91E0F912FD
:101E200018C0813099F51134D8F2DB86D11002C088
:101E300081E08D878B81882399F22396EB2DFC2DF1
:101E4000CF01089629912193E817F907D9F781E086
:101E5000CBCFEE2DF0E0F8120FC08B851817A0F451
:101E6000DE01AE0FBF1F13968C91802379F4F12C05
:101E7000193008F41C87D12EEC0FFD1F8381902FA1
:101E80009095892383830AC08113F1CFFE01EE0D63
:101E9000F11D8381802B8383FF24F3946F2DCE016A
:101EA0000E94A10B1F5F000F11F4E39401E087E093
:101EB0008E1508F0ACCFB7CFCF92DF92EF92FF92A2
:101EC0000F931F93CF93DF93CDB7DEB761970FB614
:101ED000F894DEBF0FBECDBF8C017C018EE0E80E12
:101EE000F11CF8018789908D0E94700BF801158A0A
:101EF000168ADD24D394BE01665F7F4FF80187897F
:101F0000908D0E94DC0E882309F472C067E0CE0138
:101F10000A960E94590B99898913EDCFF80185899A
:101F20008F5F858B8A85883231F008F048C0803118
:101F300011F0823201F7F80186898F5F868B8685E2
:101F4000811122C08789908D0E94230CBE01665F9B
:101F50007F4FF8018789908D0E94040C40E064EB6C
:101F6000F8018789908D0E94D00BF8018789908DA8
:101F70000E947D0BC82EF8018789908D0E94230C4A
:101F8000C11002C0F801D6868A85803119F1AE01F0
:101F90004F5F5F4FBE01665F7F4FC7010E945B0CC2
:101FA000882359F08D819A859B3311F487FD12C0E7
:101FB0008F3391F058F48F31B9F080E00EC08B333D
:101FC00009F4B9CF823409F096CFB5CF8F3571F0CF
:101FD0008F3799F78CE001C08AE0F8019189981752
:101FE00008F089CF818B87CF89E0F7CF8BE0F5CFE1
:101FF0008AE0F801818B8789908D0E94700BC12C3B
:10200000F8018589C81608F0ACC0BE01665F7F4F35
:102010008789908D0E94DC0E882309F485C067E0D3
:10202000CE010A960E94590B998989137DC08A8531
:10203000803109F479C0F801D188AE014F5F5F4F5C
:10204000BE01665F7F4FC7010E945B0C882309F4C5
:102050006BC09D818A858B3311F497FD65C0ED2D92
:10206000ED3008F463C0ECE0EA508FE1E33020F497
:10207000F0E0EA5FFD4F8081891709F455C08D8338
:10208000F8018789908D0E94230CBE01665F7F4F07
:10209000F8018789908D0E94040C40E06EE4F801FD
:1020A0008789908D0E94D00B40E06B81F801878971
:1020B000908D0E94D00B40E06C81F8018789908D53
:1020C0000E94D00B8A85803139F040E06D81F801A3
:1020D0008789908D0E94D00BF8018789908D248983
:1020E000222301F10E94230C8823F1F0BE01665FD8
:1020F0007F4FF8018789908D0E94040CF801468576
:1021000068E48789908D0E94D00BF8018685811143
:1021100012C064E170E080E090E00E941C05F801CC
:102120008789908D0E94230CC3946ACFE93008F010
:102130009BCFE9E099CF8785882321F060E08089F3
:102140000E94CA0364E170E080E090E00E941C05F8
:10215000F8018785882319F361E080890E94CA030A
:10216000DECF128A61960FB6F894DEBF0FBECDBFE8
:10217000DF91CF911F910F91FF90EF90DF90CF9063
:102180000895EF92FF920F931F93CF93DF938C01EB
:10219000E0907C07F0907D078CE190E00E941B2886
:1021A000EC018FEF9FEF998388839B838A831D8245
:1021B0001C821F821E82188619861A861B8680E260
:1021C00091EAA7E0B0E08C879D87AE87BF87188A29
:1021D000198A1A8A1B8A8C8B9D8BAE8BBF8B89E1E7
:1021E00092E0998F888F8AE090E00E941B28FC0182
:1021F0009B8F8A8FF782E68280E092ECA1E0B0E0CC
:1022000080839183A283B38386E290E09583848365
:10221000118610868091740790917507009711F0D0
:102220000E94B7288091760790917707009711F068
:102230000E94B7288091780790917907009711F054
:102240000E94B72880917A0790917B07009711F040
:102250000E94B728E4E6F7E088E1DF011D928A9545
:10226000E9F78091620790916307009741F00E941F
:102270004B0780916207909163070E944007D093BB
:102280006307C093620790E080E0209769F0E88DD3
:10229000F98D0084F185E02DB801CE011995CE01AC
:1022A0000E94560781E090E0DF91CF911F910F913E
:1022B000FF90EF90089520916E0730916F0782177D
:1022C00093074CF040916C0750916D07420F531FDC
:1022D000841795074CF084EE9BE290937F078093E0
:1022E0007E0790E080E00895821B930B880F991F72
:1022F0002091780730917907820F931FFC01718339
:10230000608381E090E00895CF93C82F682F88E222
:102310000E94CA036C2F70E08FE893E0CF910C9479
:102320005B11CF93C82F682F89E20E94CA036C2FDC
:1023300070E080E993E0CF910C945B11CF93C82FAC
:10234000682F8AE20E94CA036C2F70E081E993E053
:10235000CF910C945B11CF93C82F682F8BE20E9412
:10236000CA036C2F70E082E993E0CF910C945B116B
:102370008F929F92AF92BF92CF92DF92EF92FF9295
:102380000F931F93CF93DF93CDB7DEB761970FB64F
:10239000F894DEBF0FBECDBFFC0122AD222309F4AD
:1023A0008FC08C018789908D0E947D0B813009F050
:1023B00087C0F8018789908D0E94700BBE01665F0F
:1023C0007F4FF8018789908D0E94DC0E882309F4E5
:1023D00067C067E0CE010A960E94590B998989135C
:1023E0005FC0AE014F5F5F4FBE01665F7F4FC801A8
:1023F0000E960E945B0C882309F452C02A8160E08B
:1024000070E0CB0127FF04C060E070E088EF9FEF31
:102410003A8589803B3309F066C04D8147FF63C030
:1024200080FC3EC0912CB12CA12C53E0880C991C4F
:10243000AA1CBB1C5A95D1F775016401F0EECF229E
:10244000F7E0DF22EE24FF24822E912CB12CA12C68
:10245000EBE0880C991CAA1CBB1CEA95D1F78C28D0
:102460009D28AE28BF28682979298A299B296138A7
:10247000F4EE7F07FFEF8F079F0794F00E9472240E
:1024800020E030E040E05CE30E94D1246B017C015D
:1024900020E030E04EEF52EC0E946B24811169C0C5
:1024A00080E090E8F80194A783A783E085A7F8016E
:1024B00063A574A585A196A10E945B11F80112AED7
:1024C00061960FB6F894DEBF0FBECDBFDF91CF91FE
:1024D0001F910F91FF90EF90DF90CF90BF90AF9042
:1024E0009F908F900895C22ED12CDC2CCC24DD0C33
:1024F000DD0CDD0C28E0829E40011124C828D9287B
:102500000D2C000CEE08FF086C297D298E299F29CF
:10251000303109F0ACCF2885222309F4A8CF6B0114
:102520007C0183E0CC0CDD1CEE1CFF1C8A95D1F7EE
:1025300030E8C32237E0E322FF2480E2C81AD10842
:10254000E108F108622F70E08F81FB01E81BF109BF
:10255000CF019695982F8827979587950E94A92552
:10256000072E000C880B990B6C0D7D1D8E1D9F1D79
:102570007ECF20E030E048EC52E4C701B6010E9473
:10258000D1240E94E527F80174A763A787A190A52D
:102590000E941B037C01F80181A592A50E941B03E8
:1025A000F80123A534A52817390714F082E07ECF5F
:1025B00081E0E216F3060CF079CF15A678CF2F92C2
:1025C0003F924F925F926F927F928F929F92AF92C3
:1025D000BF92CF92DF92EF92FF920F931F93CF9310
:1025E000DF9300D01F92CDB7DEB79B838A83098328
:1025F0001C83F22FE32F142F052FCB01AA81BB815F
:102600001D964D915D916D917C9150971A012B0112
:1026100029813C814F2F5E2F612F702F5101620164
:10262000E12CF12C00E010E00E94DD26A9E00E94E0
:10263000E62609F008F458C039812C81CF01EA81DF
:10264000FB81358726879787808B82810E94CF0404
:102650008C01AA81BB8119968D909D90AD90BC9004
:102660001C97A501940160E070E080E89FE30E9460
:102670000627EA81FB8125813681478150850E94AA
:10268000D1246B017C01B80190E080E00E947024AD
:10269000A50194010E94D1249B01AC01C701B601A0
:1026A0000E940727AA81BB8115966D937D938D9318
:1026B0009C93189720E030E040E054E40E94062705
:1026C00020E030E04AE754E40E94D12420E030E0EA
:1026D00044E852E40E9473270E94EC27EA81FB81C0
:1026E000838194810E945B11AA81BB815196ED91F7
:1026F000FC915297E3A4F4A48C9190E0B701845D1F
:102700009E4F0E945B11AA81BB815196ED91FC9175
:1027100015A584EF91E00E941B035C0185EF91E019
:102720000E941B036C01133061F5EA81FB81178B5A
:10273000168A158A70E060E081810E94CC0CAA8123
:10274000BB8157966C91579770E08C9190E08057C1
:102750009E4F0F900F900F900F90DF91CF911F9190
:102760000F91FF90EF90DF90CF90BF90AF909F9030
:102770008F907F906F905F904F903F902F900C9430
:102780005B11EA14FB04FCF420E030E040E054E488
:10279000AA81BB8115966D917D918D919C91189721
:1027A0000E94062720E030E04AE754E40E94D1244A
:1027B00020E030E044E852E40E9473270E94EC27B6
:1027C0006C157D0528F082E0EA81FB81878BB0CF14
:1027D000112331F081E0AA81BB8157968C93AFCF52
:1027E000EA81FB81178AABCF0E94212A0F931F93A6
:1027F000F801DC018D919C918F3F980711F40E94A4
:10280000212A80836183528343833483258386E036
:1028100090E01F910F9108958F929F92AF92BF9277
:10282000EF92FF920F931F93CF93DF93CDB7DEB755
:10283000A1970FB6F894DEBF0FBECDBF7C01FA01A1
:10284000CB0119A2223008F42AE08E010F5D1F4F40
:10285000822E912CB12CA12CBF01A50194010E94C4
:10286000BD25F901CA016A3074F5605DD8016E9327
:102870008D01232B242B252B79F790E080E01097F6
:1028800089F0FD0101900020E9F73197AF014A1B63
:102890005B0BD701ED91FC910280F381E02DB80133
:1028A000C7011995A1960FB6F894DEBF0FBECDBF34
:1028B000DF91CF911F910F91FF90EF90BF90AF905C
:1028C0009F908F900895695CD1CF8F929F92AF9225
:1028D000BF92CF92DF92EF92FF920F931F93CF930D
:1028E000DF937C01EB016C0182E0C80ED11C470133
:1028F000E5E08E0E911C10E000E0F60141916F01C1
:1029000050E070E060E02AE0CE010E940C145C010F
:10291000E881F9810190F081E02D6EE2CE011995F8
:102920008A0D9B1D080F191FC814D90431F7F70130
:10293000458150E070E060E02AE0CE010E940C1476
:10294000800F911FDF91CF911F910F91FF90EF901A
:10295000DF90CF90BF90AF909F908F900895BF92DF
:10296000CF92DF92EF92FF920F931F93CF93DF935B
:10297000CDB7DEB7ED84FE84CF84D888B9880B89C3
:102980001C89D70114968D919C91892B59F0AE0129
:10299000475E5F4F6F89788D80918407909185079E
:1029A0000E942F2A8D899E89892B31F0C7010E94B0
:1029B0007C07C7010E946907F601828193818058D4
:1029C0009F4F93838283D7015896ED91FC910484A5
:1029D000F585E02DB801C6011995F801E80FF91F3A
:1029E000B0820196DF91CF911F910F91FF90EF90F0
:1029F000DF90CF90BF9008952F923F924F925F92B9
:102A00006F927F928F929F92AF92BF92CF92DF92FE
:102A1000EF92FF920F931F93CF93DF93CDB7DEB763
:102A2000C851D2400FB6F894DEBF0FBECDBFFC0137
:102A3000A281B381109749F486E190E090937F07DB
:102A400080937E0790E080E051C45C017E01FBEF43
:102A5000EF1AFEEFFF0A5896ED91FC915997048802
:102A6000F589E02DB701CD0119951816190654F70F
:102A7000D50112966D907C90C55FDD4F9983888358
:102A8000CB50D24086E190E06114710409F428C46F
:102A9000D3015896ED91FC91C280D380A4E0B1E0BF
:102AA000AC0FBD1FAC0DBD1D8C91282F30E0CD5E4D
:102AB000DD4F39832883C351D240A7014C0D5D1DE2
:102AC000C15FDD4F59834883CF50D240DA019C90DB
:102AD000092D10E0A6E0B1E0AC0FBD1FAC0DBD1D8F
:102AE0004C90512C542C4424A7E0B1E0AC0FBD1FF6
:102AF000AC0DBD1D8C91480E511C1E01BBEF2B1A55
:102B0000BDEF3B0AD10111963C932E9313961C9373
:102B10000E9312970684F785E02DBE01655F7D4F09
:102B2000C7011995F10195838483EFEFE90DE73132
:102B300008F0ABC5F0E08827EF55FA4E8F4F0C94A4
:102B4000DF25B815B815DD16DD166E17C6176E1918
:102B5000451B451B451B451B451B451B451BFB17C3
:102B6000BF183D19451B451B451B451B9019DC191A
:102B70000230110509F04CC0D5011A964D915C91B7
:102B80001B9718962D913C9119975696AD90BC9035
:102B900080EC92E0E8E0F1E0EC0FFD1FEC0DFD1D94
:102BA000E080F12CFE2CEE24E9E0F1E0EC0FFD1FBB
:102BB000EC0DFD1D6081E60EF11CB701615071093D
:102BC000603D774078F127E02F9320ED2F939F937E
:102BD0008F93FF92EF9284EF92E09F938F931F92D7
:102BE00081E08F9321E030E02C0F3D1F3F932F9326
:102BF0001F9283E08F933F922F927F926F920E9459
:102C0000AF148C010FB6F894DEBF0FBECDBF67C006
:102C1000F5014681578124813581A488B58886EBEA
:102C200092E0B8CF6201C41AD50AD7FC08C04701A8
:102C30008C0C9D1C28153905ACF44E0C5F1C9F9321
:102C40008F935F924F928CE193E09F938F931F92AB
:102C50001F9261E070E06C0F7D1F7F936F931F9256
:102C600082E005C2D3015896ED91FC910484F5856C
:102C7000E02DBE016F5F7F4FC10119958C010F5F81
:102C80001F4FE1E0F0E0EC0FFD1F8E0F9F1F21E0D2
:102C9000A70147705527452B09F420E0F3E0F59490
:102CA000E794FA95E1F7E20EDC01EC92F501EC0D08
:102CB000FD1D30E020E090E080E0AF014A195B09A3
:102CC000481559050CF460C0892B49F0E1E0F0E0AB
:102CD000EC0FFD1FE00FF11F20830F5F1F4FCD5E34
:102CE000DD4F28813981C351D240232B09F4FCC226
:102CF000D3015896ED91FC910088F189E02DB8013F
:102D0000CE01019619958C01D3015896ED91FC9155
:102D10000288F389E02DA801BE016F5F7F4FC301D8
:102D200019957B016F3F7F4FD9F4F301868181FFB5
:102D300017C0C0907E07D0907F07C301F2EFCF1677
:102D4000FDE2DF0609F0B1C40E944B07C3010E94F7
:102D50007C07C3010E945607D0927F07C0927E076E
:102D6000D30116968C9181FF04C0BFEFEB16FB06D2
:102D700059F21E141F040CF0B7C20E151F0509F4FA
:102D8000B3C28FEE9BE2ACC2419150E0082E02C06C
:102D9000440F551F0A94E2F7242B352B87309105F9
:102DA00051F4A1E0B0E0AC0FBD1FA00FB11F2C93F8
:102DB0000F5F1F4F7ECF019680CF04301105B1F514
:102DC000F5014685578524853585808C918C80ED6D
:102DD00092E0E8E0F1E0EC0FFD1FEC0DFD1D00813D
:102DE00010E0102F0027E9E0F1E0EC0FFD1FEC0DE3
:102DF000FD1D6081060F111DB80161507109FE01B2
:102E000031966F016D37710500F11F922DE72F93F9
:102E10009F938F931F930F9384EF92E09F938F93D1
:102E20001F9281E08F93FF93EF93E2CED5015296EC
:102E30004D915C91539750962D913C9151975A9694
:102E40008D909C9085EE92E0C4CF7201E41AF50A51
:102E50005701F7FC07C0E00EF11E2E153F057CF46C
:102E6000400E511E9F938F935F924F928CE193E09F
:102E70009F938F931F921F92DF92CF92F0CED30138
:102E80005896ED91FC910484F585E02DB601C101C1
:102E90001995F601E80FF91F000F00839501220F25
:102EA000331F820E931E0196F601E80FF91F8F0162
:102EB0000C191D09AE14BF040CF011CFD4011196EA
:102EC0008C91B2E08B0E911C8083D40112978C916F
:102ED00081832FEFA21AB20A3296E9CFD501169656
:102EE0008D919C911797A201481B590BCE01019619
:102EF00057FD06C014962D913C91421753074CF094
:102F00005F924F922EE333E03F932F931F921F92D5
:102F1000B1C1E8E0F1E0EC0FFD1FEC0DFD1D2081DB
:102F200030E0322F2227E9E0F1E0EC0FFD1FEC0D3D
:102F3000FD1D6081260F311D2115FFEF3F0719F0A0
:102F400021153105B1F4D5015496ED91FC91E40FB2
:102F5000F51F41E0232B09F440E04083C55FDD4FBE
:102F600008811981CB50D240A801B7010E94262ABE
:102F7000B6CE5F924F923F932F9327E633E03F9375
:102F80002F931F921F929F938F936FC0D5015296DC
:102F90008D919C9153979201281B390BCE0101967C
:102FA00037FD07C050964D915C9151972417350716
:102FB0002CF05F924F9225EA33E0A6CF220F331F09
:102FC0005A96ED91FC91E20FF31FA8E0B1E0AC0F2F
:102FD000BD1FAC0DBD1D2C9130E0322F2227A9E082
:102FE000B1E0AC0FBD1FAC0DBD1D4C91240F311DC8
:102FF00031832083B3CFE8E0F1E0EC0FFD1FEC0D4F
:10300000FD1D808190E0982F8827E9E0F1E0EC0F2A
:10301000FD1FEC0DFD1D2081820F911D9C01215093
:103020003109203B374070F4EAE0F1E0EC0FFD1F7E
:10303000EC0DFD1D2081E8E02E9F90011124281742
:103040003907ECF427E02F9320EB2F939F938F9376
:1030500083ED93E09F938F931F9281E08F9321E004
:1030600030E02C0F3D1F3F932F931F9283E08F93EF
:103070003F922F927F926F920E94AF14C2CDD501E2
:1030800016962D913C911797F201E21BF30B9F01CD
:10309000F7FD0CC0BC016E0F7F1F14964D915C9123
:1030A000159746175707D4F4480E591E5F924F9252
:1030B00087E094E09F938F931F921F9221E030E06E
:1030C0002C0F3D1F3F932F931F9282E08F933F92CF
:1030D0002F927F926F920E94AF1493CD56E0C50E4F
:1030E000D11C54960D911C91200F311FF90150E015
:1030F00040E081E090E08C0F9D1FC80ED91ECF01EB
:10310000801B910B86179707F0F0D3015896ED912D
:10311000FC910484F585E02DBE016F5F7F4FC101F6
:103120001995A1E0B0E0AC0FBD1FA80FB91FF701C2
:10313000E80FF91F24E001900D922A95E1F78C0128
:103140000C5F1F4FCCCDCF01821B930BA3E0969554
:103150008795AA95E1F78C0D9D1D8C5F9E4FDC0134
:103160008C9190E0042E02C0959587950A94E2F721
:10317000817081934F5F5F4F47705527C0CFE8E064
:10318000F1E0EC0FFD1FEC0DFD1D208130E0322F32
:103190002227E9E0F1E0EC0FFD1FEC0DFD1D808121
:1031A000280F311DC90101978B37910570F4EAE0B2
:1031B000F1E0EC0FFD1FEC0DFD1D8081B8E08B9F51
:1031C000C0011124821793077CF41F928BE78F9321
:1031D0003F932F9381E394E09F938F931F9281E01D
:1031E0008F93CE010196CFCED50152968D919C91B1
:1031F0005397F201E81BF90BCF01F7FD31C0A9018C
:103200004E0F5F1F50966D917C916417750734F1D6
:10321000C15FDD4FE881F981CF50D2409C01220F80
:10322000331F2E193F092C193D09841795070CF0FF
:103230006CCFD5015A966D917C91DB01A20FB31F23
:10324000AE0FBF1F668170E0762F66271781610F72
:10325000711D6D937C9301963296E7CF420E531EFB
:103260005F924F928AE694E09F938F931F921F92F2
:10327000CE0101969F938F9327CFD3015896ED915E
:10328000FC910484F585E02DBE016F5F7F4FC10185
:103290001995FE01E80FF91F24EB2283FE01E80FC8
:1032A000F91F2FEF2383DC011396E1E0F0E0EC0F30
:1032B000FD1FAE0FBF1F28E0E9E9F4E001900D9279
:1032C0002A95E1F78C01055F1F4FE1E0F0E0EC0F7C
:1032D000FD1FE80FF91F8AE0808301CD8DE690E0A5
:1032E00090937F0780937E0781E090E0C85EDD4F7A
:1032F0000FB6F894DEBF0FBECDBFDF91CF911F9107
:103300000F91FF90EF90DF90CF90BF90AF909F9084
:103310008F907F906F905F904F903F902F90089587
:10332000D50152968D919C915397F201E81BF90BB0
:10333000CE010196F7FD3DCE50962D913C915197CF
:10334000E217F3070CF035CEEE0FFF1F5A962D91C2
:103350003C91E20FF31FAAE0B1E0AC0FBD1FAC0D32
:10336000BD1D2C9130E0322F2227ABE0B1E0AC0F35
:10337000BD1FAC0DBD1D4C91240F311DA8E0B1E067
:10338000AC0FBD1FAC0DBD1D4C91642F70E0762FAE
:103390006627A9E0B1E0AC0FBD1FAC0DBD1D4C917F
:1033A000460F572F511D6081718162277327462375
:1033B0005723242735271CCEE8E0F1E0EC0FFD1F52
:1033C000EC0DFD1D808190E0982F8827E9E0F1E069
:1033D000EC0FFD1FEC0DFD1D2081FC01E20FF11D26
:1033E000C35FDD4FF983E883CD50D240ECE0F1E0DC
:1033F000EC0FFD1FEC0DFD1D808190E0982F8827BC
:10340000EDE0F1E0EC0FFD1FEC0DFD1D2081820FC2
:10341000911D9C0121503109DE011196293731059A
:10342000C0F4C35FDD4F28813981CD50D240215097
:1034300031092D37310568F4EEE0F1E0EC0FFD1FA6
:10344000EC0DFD1D40819C01220F331F4217130616
:1034500039F11F922DE72F931F9229E72F93C25F17
:10346000DD4FF881CE50D240FF93C35FDD4F2881FE
:10347000CD50D2402F939F938F9382EA94E09F93F5
:103480008F931F9281E08F93BF93AF931F9283E03E
:103490008F933F922F927F926F920E94AF14B1CB85
:1034A000EAE0F1E0EC0FFD1FEC0DFD1D208130E0A6
:1034B000322F2227EBE0F1E0EC0FFD1FEC0DFD1D9C
:1034C0004081240F311DF501428953898201041B7B
:1034D000150BCF5EDD4F19830883C151D240B9016E
:1034E000641B750BAB014B0117FDE5C0C35FDD4FDE
:1034F000E881F981CD50D240E00FF11FCB5EDD4F66
:10350000F983E883C551D240F50160897189CB5EAA
:10351000DD4FE881F981C551D2406E177F07FCF07D
:1035200057FD1FC0AC01480D591DC95EDD4F5983C1
:103530004883C751D24064177507E4F4280F391F38
:1035400017FF0FC03F932F935F924F928EEE94E040
:103550009F938F931F921F92BF93AF9380CB57FF80
:10356000EDCFC35FDD4F68817981CD50D240460EEB
:10357000571EE8CFF301808D918DFC0124853585A0
:103580007D01BD01CE018B5F9D4FF9011995F701BA
:10359000E80FF91FC35FDD4F2881CD50D240220FC5
:1035A0002083C15FDD4FE881F981CF50D240AE0169
:1035B0004B5F5E4F9401220F331F241B350B2C19D8
:1035C0003D09C95EDD4F48815981C751D2408416FB
:1035D00095060CF443C0F701E80FF91F9801220F7C
:1035E000331F2E193F09B901681B790BCB0141E04C
:1035F00050E04E195F098A010E0F1F1FCB5EDD4F91
:1036000068817981C551D240CF5EDD4FA881B981F3
:10361000C151D240A617B7070CF061CBBC016E0FA9
:103620007F1FD5015A962D913C91DB01A20FB31F4C
:1036300011962C91119721832C912283CF5EDD4F1F
:1036400028813981C151D2402F5F3F4FCF5EDD4F7E
:1036500039832883C151D2403296CDCFD5015A96B5
:103660004D915C91DA01A20FB31FAE0FBF1F4285CF
:1036700050E0542F44276385460F511D4D935C93B2
:10368000BFEF8B1A9B0A32969CCF1F929F928FE3BB
:1036900095E09F938F931F9281E08F939E012F5F00
:1036A0003F4F3F932F931F9211CD0E947C07C30180
:1036B0000E94690751CB77FF41CF44CF8F929F92F1
:1036C000AF92BF92EF92FF920F931F93CF93DF932E
:1036D00080E697E00E94FC14019661F480917D05DC
:1036E0008F5F80937D058B3038F08091720690E07B
:1036F0000E94C11010927D05809170069091710614
:10370000DC01ED91FC910084F185E02D1995892B68
:1037100009F48BC000E716E0E801F12CE12CC701A9
:103720000E94F1024B018B819C8188159905D9F08B
:10373000E0919D05F0919E05CE0180579640E80FDF
:10374000F91F0190F081E02DB401B9EE8B16B3E0C2
:103750009B0610F068EE73E0768B658B81810E948A
:10376000CC0C9C828B82EFEFEE1AFE0A2296FFE0D1
:10377000EF16F104A1F6CFE8D3E0CE010E94F102EA
:103780004B01D80193968D919C918816990689F0EA
:1037900081E08114910409F480E0CF38B3E0DB07C5
:1037A00009F04EC00E948411D80194969C928E928A
:1037B000939721960E5F1F4FC339B3E0DB07E9F6FD
:1037C00084E893E00E94F1024B01CB0120919B061B
:1037D00030919C066217730741F1892B11F5D0E0F7
:1037E000C0E0E0919D05F0919E05EC0FFD1F01905A
:1037F000F081E02D168A158A70E060E081810E94D8
:10380000CC0C2296CE31D10561F780E00E94841164
:1038100080E00E94911180E00E949E1180E00E9451
:10382000AB1190929C0680929B06DF91CF911F91E5
:103830000F91FF90EF90BF90AF909F908F90089561
:10384000C039E3E0DE0719F40E949111ADCFC13910
:10385000F3E0DF0719F40E949E11A6CF0E94AB117E
:10386000A3CF1F920F920FB60F9211242F933F9365
:103870008F939F93AF93BF93809175059091760539
:10388000A0917705B09178053091740523E0230F5E
:103890002D3758F50196A11DB11D20937405809315
:1038A000750590937605A0937705B0937805809180
:1038B000790590917A05A0917B05B0917C050196E0
:1038C000A11DB11D8093790590937A05A0937B0586
:1038D000B0937C05BF91AF919F918F913F912F91B4
:1038E0000F900FBE0F901F90189526E8230F029699
:1038F000A11DB11DD2CF1F920F920FB60F921124AE
:103900000BB60F922F933F934F935F936F937F93D9
:103910008F939F93AF93BF93EF93FF9383EA95E0C9
:103920000E948006FF91EF91BF91AF919F918F917F
:103930007F916F915F914F913F912F910F900BBEAF
:103940000F900FBE0F901F9018951F920F920FB6F9
:103950000F9211240BB60F922F938F939F93EF9397
:10396000FF93E091B305F091B4058081E091B90532
:10397000F091BA0582FD1DC090818091BC058F5FDA
:103980008F732091BD05821741F0E091BC05F0E0F6
:10399000ED55FA4F958F8093BC05FF91EF919F9164
:1039A0008F912F910F900BBE0F900FBE0F901F9015
:1039B00018958081F2CF1F93CF93DF93EC01162FE0
:1039C00060E0812F0E945604612F70E0FB01E451FA
:1039D000FB4FE491E883FB01EA55FB4FE491F0E0F3
:1039E000EE0FFF1FE85CFD4F859194919A838983C8
:1039F000CE01DF91CF911F910C94700B6F927F924B
:103A00008F929F92AF92BF92CF92DF92EF92FF92EE
:103A10000F931F93CF93DF9310928105109280052F
:103A200048EE53E060E070E04093820550938305D8
:103A3000609384057093850583E492E090937F05FD
:103A400080937E0583EA95E090938B0580938A05A9
:103A500021E030E030938D0520938C0522E030E0AA
:103A600030938F0520938E052FEF3FEF3093910514
:103A7000209390051092930510929205109295054F
:103A800010929405109296051092A6051092A50525
:103A90004093A7055093A8056093A9057093AA05C4
:103AA00021E632E03093A4052093A30525EC30E015
:103AB0003093B0052093AF0524EC30E03093B2058D
:103AC0002093B10520EC30E03093B4052093B3058A
:103AD00021EC30E03093B6052093B50522EC30E0C0
:103AE0003093B8052093B70526EC30E03093BA0543
:103AF0002093B9051092BC051092BD051092BE0529
:103B00001092BF051092630710926207E4E6F7E097
:103B100028E1DF011D922A95E9F72DE732E0309385
:103B20006107209360072EE735E030937D072093EF
:103B30007C0724EB32E0309341062093400610923C
:103B40004206109243061092440610924506909346
:103B5000710680937006C1E0C093720665E18DE93D
:103B600096E00E94DB1C1092C1061092C0061092D3
:103B7000AC068DE996E09093B5068093B40610925A
:103B8000B2061092B3061092AB06D9E0D093AE06FF
:103B9000C093AF06C093B006C093B10688E993E026
:103BA0009093C3068093C20689E993E09093C5067B
:103BB0008093C4068AE993E09093C7068093C60673
:103BC0001092C9061092C8061092CA061092CB062F
:103BD0001092CC061092CD061092CE061092CF060F
:103BE0001092D0061092D1061092D20664E188EDB0
:103BF00096E00E94DB1C1092FC061092FB061092CD
:103C0000E70688ED96E09093F0068093EF06109219
:103C1000ED061092EE061092E606D093E906C093E8
:103C2000EA06C093EB06C093EC0682EA93E0909319
:103C3000FE068093FD0683EA93E09093000780934D
:103C4000FF0684EA93E090930207809301071092A5
:103C500004071092030710920507109206071092AE
:103C60000707109208071092090710920A0710928E
:103C70000B0710920C0710920D071092500710922C
:103C80005107109252071092530710925407109246
:103C90005507109256071092570710925807109226
:103CA000590710925A0710925B0780E490E09093B6
:103CB0005D0780935C0710925F0710925E0780E7B4
:103CC00096E09093A2058093A1058FE497E09093EE
:103CD000A00580939F0581E397E090939E058093D4
:103CE0009D0541EAC42E42E0D42E03E117E04801CD
:103CF0005CE2E52EFF24F39469E0662E772473944A
:103D000074EFA72EBB24B3948BE390E00E941B2892
:103D1000EC01F60161916F010E94DB1C1CA21BA249
:103D20001F86D88FCF8B1D8A1E8A1E86698A7A8A43
:103D30007B8A7C8AFEA2EDA2B8A6AFA21AA619A61B
:103D40001CA61BA61DA61EA61FA618AA19AA1AAA5B
:103D50001BAA1CAA1DAAD401CD93DD934D01BFEF70
:103D6000EB1AFB0AEBE3EE16E1E0FE0669F682E9E8
:103D7000C82E82E0D82E93E8E92E92E0F92EC8EC06
:103D8000D0E02AE9822E29E9922E29E1A22E2EE303
:103D9000B22E30E7632E36E0732E88E190E00E9469
:103DA0001B28FC01D8018D919D918D01D6012D918B
:103DB0006D01D7013D917D014C2F485C40833183DB
:103DC0002283D483C383158216821782108681864C
:103DD0009286A386B486158616861786108A928BDD
:103DE000818B748A638A168A158A178AD8015D9630
:103DF000FC93EE935C972196C73DD10571F684EB59
:103E000092E09093470680934606109248061092DF
:103E1000490610924A0610924B0690934D068093E5
:103E20004C0610924E0610924F06109250061092B9
:103E300051069093530680935206109254061092A6
:103E40005506109256061092570690935906809385
:103E5000580610925A0610925B0610925C06109259
:103E60005D0690935F0680935E0610926006109246
:103E70006106109262061092630690936506809325
:103E800064061092660610926706109268061092F9
:103E9000690690936B0680936A0610926C061092E6
:103EA0006D0610926E0610926F06DF91CF911F91F2
:103EB0000F91FF90EF90DF90CF90BF90AF909F90C9
:103EC0008F907F906F900895CF93DF93CDB7DEB73B
:103ED00064970FB6F894DEBF0FBECDBF789484B55B
:103EE000826084BD84B5816084BD85B5826085BDF6
:103EF00085B5816085BD80916E00816080936E0084
:103F00001092810080918100826080938100809175
:103F10008100816080938100809180008160809326
:103F200080008091B10084608093B1008091B000E6
:103F300081608093B00080919100826080939100B5
:103F400080919100816080939100809190008160C8
:103F5000809390008091A10082608093A100809165
:103F6000A10081608093A1008091A0008160809376
:103F7000A000809121018260809321018091210124
:103F800081608093210180912001816080932001D4
:103F900080917A00846080937A0080917A008260B8
:103FA00080937A0080917A00816080937A0080917A
:103FB0007A00806880937A001092C10026E040E089
:103FC00052EC61E070E080917006909171060E9461
:103FD000D2058091720690E00E94C110892B09F4ED
:103FE000FFCF60ED77E080917A0790917B070E9488
:103FF000402990937B0780937A07009709F0EFC3DD
:104000001092730710927207109271071092700746
:1040100060ED77E080917807909179070E944029C0
:104020009093790780937807009709F0EAC310927C
:104030006F0710926E0710926D0710926C0770E078
:1040400060E084E893E00E941F0370E060E085E890
:1040500093E00E945B1170E060E086E893E00E94CC
:104060005B1170E060E087E893E00E945B1170E014
:1040700060E088E893E00E945B1160E777E184EFFD
:1040800091E00E941F0364E873E085EF91E00E94D5
:104090001F0368E873E189E993E00E941F0360E76A
:1040A00077E18AE993E00E941F0368E873E183EAFD
:1040B00093E00E941F0360E777E184EA93E00E94A7
:1040C0001F0303E716E01A82198270E060E089811D
:1040D0009A810E941F03D8011D921D928D01E981D2
:1040E000FA813196FA83E9833F9779F7E3E9F6E0BD
:1040F00088E0DF011D928A95E9F710929C061092E4
:104100009B068DE996E00E945C0F88ED96E00E9488
:104110005C0FE3E1F7E0FA87E987A985BA858D911D
:104120009D91BA87A9870E945C0FE985FA85E153C2
:10413000F74099F7BFE4EB2EB7E0FB2E01E317E061
:10414000D801ED91FD918D01FA83E98361E08181D0
:104150000E94560460E0A981BA8112968C910E9457
:104160005604E981FA8182810E94CF04BC0190E06B
:1041700080E00E947024A981BA8115966D937D9389
:104180008D939C93189768EE73E080E090E00E9416
:10419000080E70E060E0E981FA8181810E94CC0C18
:1041A000E016F10669F683E284BD89E085BD3FEF44
:1041B00037BD18BC8AEA8093800029E120938100F2
:1041C00080ED97E0909387008093860043EA4093C8
:1041D000B00041E04093B1003093B3001092B400BE
:1041E00032EA30939000209391009093970080934F
:1041F00096003093A0002093A1009093A700809395
:10420000A6003093200120932101909327018093F1
:10421000260161E088E20E94560461E089E20E9482
:10422000560461E08AE20E94560461E08BE20E943B
:10423000560460E088E20E94CA0360E089E20E94BE
:10424000CA0360E08AE20E94CA0360E08BE20E9437
:10425000CA03E5B5E770E150E53008F0E4C2F0E0EC
:10426000EE0FFF1FE15FFD4F008111811C870B875F
:10427000F89436B44090790550907A0560907B05AB
:1042800070907C05A89B08C03FEF331629F04FEFD4
:10429000441A540A640A740A789480905C079090D7
:1042A0005D076B857C858616970609F462C0809150
:1042B000580790915907A0915A07B0915B07930155
:1042C0008201081B190B2A0B3B0B40E050E0BA019E
:1042D00009831A832B833C834D835E836F837887A6
:1042E000B12CA12C9401A50160E070E080E090E089
:1042F00008E00E949E2659016A017B018C012981F8
:104300003A814B815C8160E070E080E090E00E9447
:10431000E725A0905007B0905107C0905207D09069
:104320005307E0905407F0905507009156071091FD
:1043300057070E94D426209350073093510740938B
:104340005207509353076093540770935507809317
:10435000560790935707409258075092590760921A
:104360005A0770925B072B853C8530935D0720933D
:104370005C078091580790915907A0915A07B09116
:104380005B07B301A201481B590B6A0B7B0BDB01D6
:10439000CA018A019B0140E050E0BA0189831A8377
:1043A000AB833C834D835E836F8378879C014B8115
:1043B0005C8160E070E080E090E008E00E949E2672
:1043C000A32CB12CC12CD12CE12CF12C00E010E05D
:1043D0000E94D42620905C0730905D0751010E9416
:1043E000E725A0905007B0905107C0905207D09099
:1043F0005307E0905407F09055070091560710912D
:1044000057070E94D426E0E8AE2EFEE3BF2EC12C53
:10441000D12CE12CF12C00E010E00E944126922EDC
:10442000732E642E552E462E872E382E292E622F5F
:10443000772D85E893E00E945B11292D372D462DBD
:10444000552D642D782D832D922D00E10E94B926E3
:10445000B90186E893E00E945B11292D372D462D86
:10446000552D642D782D832D922D00E20E94B926C2
:10447000B90187E893E00E945B11292D372D462D65
:10448000552D642D782D832D922D00E30E94B926A1
:10449000B90188E893E00E945B110E945E1B292D00
:1044A000372D462D552D642D782D832D922DA090DE
:1044B0006C05B0906D05C0906E05D0906F05E090D2
:1044C0007005F090710500917205109173050E94BE
:1044D000DD26A3E60E94E62609F008F448C0909283
:1044E0006C0570926D0560926E0550926F0540925A
:1044F000700580927105309272052092730521E358
:1045000037E03A832983F12C092D172D262D352DDF
:10451000442D582D632D722DA981BA818D919C91C6
:104520000E94DF12262D352D442D582D632D722D1E
:10453000E981FA81828193810E94DF12262D352D37
:10454000442D582D632D722DA981BA8114968D9119
:104550009C910E94DF120E945E1BB3E0FB0EE9817A
:10456000FA813696FA83E983FFE0FF12CDCF292D39
:10457000372D462D552D642D782D832D922DA0900D
:104580006405B0906505C0906605D0906705E09021
:104590006805F090690500916A0510916B050E940D
:1045A000DD26273E33404105510561057105810532
:1045B000910509F008F476C1909264057092650542
:1045C0006092660550926705409268058092690581
:1045D00030926A0520926B0523E137E03A83298304
:1045E000A981BA81ED91FD91BA83A983FC8BEB8BF4
:1045F00082AD811172C086A997A9A0ADB1AD8C0121
:104600009D0140E050E0BA018B871C87AD873E8753
:104610004F87588B698B7A8B292D372D462D552D39
:10462000642D782D832D922D5801CD84DE84E12CCC
:10463000F12C00E010E00E94DD26283E33404105C9
:104640005105610571058105910509F008F445C022
:104650008789908D0E94230C40E06CECAB89BC896B
:1046600057968D919C910E94D00BEB89FC894685D1
:1046700064E48789908D0E94D00B0E944F056B01E6
:104680007C01AB89BC8952968C9152978823E9F0C2
:1046900053968C915397882309F4CAC01E968C9127
:1046A0008111C6C0EB89FC898789908D0E947D0BA2
:1046B000813059F00E944F056C197D098E099F09C0
:1046C0006E3E72408105910568F301E0EB89FC893B
:1046D00002AF96AA77AA60AE51AE29853A85498184
:1046E0005A812417350709F07BCF03E117E01C87B7
:1046F0000B87AB85BC858D919D91BC87AB870E9454
:10470000B811E981FA810B851C85E017F10789F75B
:104710008DE996E00E94B81188ED96E00E94B811EC
:104720000091C8061091C9061A83098389E993E0AC
:104730000E941B038C018AE993E00E941B032981DC
:104740003A812F3F320741F02817390708F09EC001
:1047500081E00217130708F480E00E9484110091A1
:104760000307109104071A83098383EA93E00E94E8
:104770001B037C0184EA93E00E941B038C012981C6
:104780003A812F3F320739F081E02017310720F4BA
:10479000E216F30608F480E00E94911169817A81A3
:1047A0006F3F760721F081E06017710708F480E021
:1047B0000E949E1101E317E01A821982D801ED913F
:1047C000FD918D018789823008F462C0E981FA8108
:1047D0003196FA83E9833F9789F780E061C020ED45
:1047E00037E0DC01F9011D923197E9F71092730768
:1047F0001092720788EE93E0909371078093700790
:1048000007CC20ED37E0DC01F9011D923197E9F783
:1048100010926F0710926E0788EE93E090936D07E9
:1048200080936C070CCC20E430E03C872B8720CDB4
:10483000AB89BC895196EC91E9508EEE92E0E33061
:1048400038F4F0E0EE0FFF1FE75FFD4F80819181AC
:104850006C01F12CE12CEB89FC898785882321F000
:1048600060E080890E94CA03C701B6010E941C054E
:10487000AB89BC891F968C911F97882309F425CF9B
:1048800061E050968C910E94CA031FCF81E065CFF2
:1048900089819A810E941B03892B09F497CF81E0BB
:1048A0000E94AB110E940F07D4CCCF93DF93C3E1DA
:1048B000D7E0899199910E94B7288C8D9D8D0E9497
:1048C000B72887E0C133D807A1F780E697E0DF91EA
:1048D000CF910C94A80E0E94AD2408F481E00895B5
:1048E000E89409C097FB3EF490958095709561958A
:1048F0007F4F8F4F9F4F9923A9F0F92F96E9BB2740
:104900009395F695879577956795B795F111F8CFBB
:10491000FAF4BB0F11F460FF1BC06F5F7F4F8F4F26
:104920009F4F16C0882311F096E911C0772321F01C
:104930009EE8872F762F05C0662371F096E8862FB4
:1049400070E060E02AF09A95660F771F881FDAF70B
:10495000880F9695879597F90895990F0008550F38
:10496000AA0BE0E8FEEF16161706E807F907C0F0F5
:1049700012161306E407F50798F0621B730B840BFD
:10498000950B39F40A2661F0232B242B252B21F4D7
:1049900008950A2609F4A140A6958FEF811D811D77
:1049A00008950E94E4240C9455250E94472538F070
:1049B0000E944E2520F0952311F00C943E250C9476
:1049C000442511240C9489250E94662570F3959F37
:1049D000C1F3950F50E0551F629FF001729FBB27F6
:1049E000F00DB11D639FAA27F00DB11DAA1F649F92
:1049F0006627B00DA11D661F829F2227B00DA11D45
:104A0000621F739FB00DA11D621F839FA00D611DCA
:104A1000221F749F3327A00D611D231F849F600DEB
:104A2000211D822F762F6A2F11249F5750409AF014
:104A3000F1F088234AF0EE0FFF1FBB1F661F771FA0
:104A4000881F91505040A9F79E3F510580F00C946B
:104A50003E250C9489255F3FE4F3983ED4F3869578
:104A600077956795B795F795E7959F5FC1F7FE2B0B
:104A7000880F911D9695879597F9089597F99F67E7
:104A800080E870E060E008959FEF80EC08950024D6
:104A90000A941616170618060906089500240A94A3
:104AA00012161306140605060895092E0394000C29
:104AB00011F4882352F0BB0F40F4BF2B11F460FFB8
:104AC00004C06F5F7F4F8F4F9F4F089557FD9058E1
:104AD000440F551F59F05F3F71F04795880F97FBC2
:104AE000991F61F09F3F79F087950895121613067C
:104AF0001406551FF2CF4695F1DF08C016161706AB
:104B00001806991FF1CF86957105610508940895DF
:104B1000E894BB2766277727CB0197F908950E9471
:104B20009A25A59F900DB49F900DA49F800D911D77
:104B300011240895A29FB001B39FC001A39F700DDF
:104B4000811D1124911DB29F700D811D1124911D95
:104B5000089597FB072E16F4009407D077FD09D02F
:104B60000E94F22607FC05D03EF4909581959F4F58
:104B70000895709561957F4F0895A1E21A2EAA1BA2
:104B8000BB1BFD010DC0AA1FBB1FEE1FFF1FA217FD
:104B9000B307E407F50720F0A21BB30BE40BF50BFA
:104BA000661F771F881F991F1A9469F76095709583
:104BB000809590959B01AC01BD01CF010895EE0F4A
:104BC000FF1F881F8BBF0790F691E02D1994DF938C
:104BD000CF931F930F939A9DF02D219FF00D8B9DE6
:104BE000F00D8A9DE02DF10D039FF00D029FE00D69
:104BF000F11D4E9DE00DF11D5E9DF00D4F9DF00DE0
:104C00007F936F93BF92AF925F934F93D5010E94B2
:104C10009A258B01AC01D7010E949A25EB01E80F80
:104C2000F91FD6010E9436262F913F91D6010E948E
:104C30009A25C60FD71FE81FF91FAF91BF910E9499
:104C400036262F913F910E949A25C60FD71FE81F45
:104C5000F91FD6010E949A25E60FF71F9801BE01A1
:104C6000CF010F911F91CF91DF9108950E949A2556
:104C7000460F571FC81FD91F08F43196089568942E
:104C800001C0E8948F929F92CF93DF930E944D26AC
:104C9000DF91CF919F908F90089588249924F401FB
:104CA000E401B0E49F93AA279A158B049C04ED05B8
:104CB000FE05CF05D007A10798F4AD2FDC2FCF2F2D
:104CC000FE2FE92D982C892E982F872F762F652F70
:104CD000542F432F322F2227B85031F7BF9127C0CE
:104CE0001B2EBF91BB27220F331F441F551F661F6A
:104CF000771F881F991F881C991CEE1FFF1FCC1F50
:104D0000DD1FAA1FBB1F8A149B04EC05FD05CE0501
:104D1000DF05A007B10748F08A189B08EC09FD09D8
:104D2000CE09DF09A00BB10B21601A94E1F62EF435
:104D30009401AF01BE01CD01000C0895002E083092
:104D400090F0982F872F762F652F542F432F322FD7
:104D500022270850F4CF220F331F441F551F661F10
:104D6000771F881F991F0A95B2F7002D089597FDA8
:104D70001094002E083098F00850232F342F452F20
:104D8000562F672F782F892F912DF4CF1594979553
:104D900087957795679557954795379527950A9500
:104DA000AAF71124002D08952A0D3B1D4C1D5D1DF1
:104DB0006E1D7F1D801F911F08952A193B094C0904
:104DC0005D096E097F09800B910B08950024A7FDF2
:104DD00000942A17300540055005600570058005D0
:104DE00090050895AA1BBB1B51E107C0AA1FBB1F5A
:104DF000A617B70710F0A61BB70B881F991F5A9567
:104E0000A9F780959095BC01CD0108955058BB2716
:104E1000AA270E941E270C9455250E94472538F08A
:104E20000E944E2520F039F49F3F19F426F40C948B
:104E300044250EF4E095E7FB0C943E25E92F0E94F3
:104E4000662558F3BA17620773078407950720F0A1
:104E500079F4A6F50C9488250EF4E0950B2EBA2F64
:104E6000A02D0B01B90190010C01CA01A001112470
:104E7000FF27591B99F0593F50F4503E68F11A161C
:104E8000F040A22F232F342F4427585FF3CF4695AD
:104E900037952795A795F0405395C9F77EF41F16CF
:104EA000BA0B620B730B840BBAF09150A1F0FF0F99
:104EB000BB1F661F771F881FC2F70EC0BA0F621F85
:104EC000731F841F48F4879577956795B795F79575
:104ED0009E3F08F0B0CF9395880F08F09927EE0F0A
:104EE0009795879508950E9487270C9455250E94D1
:104EF0004E2558F00E94472540F029F45F3F29F0E5
:104F00000C943E2551110C9489250C9444250E9443
:104F1000662568F39923B1F3552391F3951B550B3F
:104F2000BB27AA2762177307840738F09F5F5F4F7C
:104F3000220F331F441FAA1FA9F335D00E2E3AF0BB
:104F4000E0E832D091505040E695001CCAF72BD0D3
:104F5000FE2F29D0660F771F881FBB1F2617370724
:104F60004807AB07B0E809F0BB0B802DBF01FF2756
:104F700093585F4F3AF09E3F510578F00C943E25D0
:104F80000C9489255F3FE4F3983ED4F3869577959A
:104F90006795B795F7959F5FC9F7880F911D96950F
:104FA000879597F90895E1E0660F771F881FBB1F6B
:104FB000621773078407BA0720F0621B730B840B18
:104FC000BA0BEE1F88F7E09508950E94EC276894CD
:104FD000B1110C94892508950E946E2588F09F5781
:104FE00098F0B92F9927B751B0F0E1F0660F771F0D
:104FF000881F991F1AF0BA95C9F714C0B13091F003
:105000000E948825B1E008950C948825672F782F99
:105010008827B85F39F0B93FCCF3869577956795C7
:10502000B395D9F73EF490958095709561957F4F33
:105030008F4F9F4F08950F931F93CF93DF9382302D
:10504000910510F482E090E0E0918807F0918907E3
:1050500030E020E0B0E0A0E0309799F42115310570
:1050600009F44AC0281B390B24303105D8F58A8150
:105070009B816115710589F1FB0193838283FE0198
:1050800011C0408151810281138148175907E0F016
:105090004817590799F4109761F012960C931297DC
:1050A00013961C933296CF01DF91CF911F910F91F0
:1050B00008950093880710938907F4CF21153105CF
:1050C00051F04217530738F0A901DB019A01BD01E5
:1050D000DF01F801C1CFEF01F9CF909389078093E9
:1050E0008807CDCFFE01E20FF31F819391932250E9
:1050F000310939832883D7CF2091860730918707DC
:10510000232B41F420910202309103023093870750
:10511000209386072091000230910102211531056C
:1051200041F42DB73EB74091040250910502241B73
:10513000350BE0918607F0918707E217F307A0F49B
:105140002E1B3F0B2817390778F0AC014E5F5F4FDD
:105150002417350748F04E0F5F1F50938707409381
:105160008607819391939FCFF0E0E0E09CCFCF93AF
:10517000DF930097E9F0FC01329713821282A0912D
:105180008807B0918907ED0130E020E01097A1F485
:1051900020813181820F931F2091860730918707EC
:1051A0002817390709F061C0F0938707E093860755
:1051B000DF91CF910895EA01CE17DF07E8F54A8124
:1051C0005B819E0141155105B1F7E901FB83EA833B
:1051D00049915991C40FD51FEC17FD0761F48081E7
:1051E00091810296840F951FE901998388838281BA
:1051F00093819B838A83F0E0E0E012968D919C91ED
:1052000013970097B9F52D913C911197CD01029616
:10521000820F931F2091860730918707281739073F
:1052200039F6309751F51092890710928807B0939C
:105230008707A0938607BCCFD383C2834081518167
:10524000840F951FC817D90761F44E5F5F4F88819F
:105250009981480F591F518340838A819B81938391
:1052600082832115310509F0B0CFF0938907E093CF
:1052700088079ECFFD01DC01C0CF13821282D7CFF9
:105280004F925F926F927F928F929F92AF92BF9256
:10529000CF92DF92EF92FF920F931F93CF93DF9302
:1052A0008C01009799F4CB01DF91CF911F910F9161
:1052B000FF90EF90DF90CF90BF90AF909F908F9036
:1052C0007F906F905F904F900C941B28FC01E60F2D
:1052D000F71F9C0122503109E217F30708F4AEC012
:1052E000D901CD91DC911197C617D70720F1C530B0
:1052F000D10578F0CE0104978617970750F0C61BAA
:10530000D70B2297C193D1936D937C93CF010E94C9
:10531000B728C801DF91CF911F910F91FF90EF90B7
:10532000DF90CF90BF90AF909F908F907F906F90C5
:105330005F904F9008955B01AC1ABD0A4C018C0E32
:105340009D1EA0918807B0918907512C412CF12C0A
:10535000E12C109731F58091860790918707881589
:10536000990509F05CC04616570608F058C08091B0
:10537000000290910102009741F48DB79EB74091D1
:10538000040250910502841B950BE817F90708F0F9
:1053900055C0F0938707E0938607F9017183608316
:1053A000B8CF8D919C91119712966C90129713968D
:1053B0007C901397A815B90559F56C0142E0C40E0D
:1053C000D11CCA14DB0420F1AC014A195B09DA01D3
:1053D0001296159780F06282738251834083D901BF
:1053E0006D937C93E114F10471F0D7011396FC9353
:1053F000EE9312978ECF22968C0F9D1FF901918309
:105400008083F301EFCFF0938907E093880781CF82
:105410004816590608F42C017D01D3019ACFCB011F
:105420000E941B287C01009749F0AE01B8010E9440
:10543000262AC8010E94B72887016BCF10E000E040
:1054400068CF81E090E0F8940C94D52CFB01DC014E
:1054500002C001900D9241505040D8F708952F920C
:105460003F924F925F926F927F928F929F92AF92F4
:10547000BF92CF92DF92EF92FF920F931F93CF9341
:10548000DF9300D000D000D01F921F92CDB7DEB7BF
:105490007C013B018A01FC0117821682838181FF16
:1054A000DDC1CE0101965C01F7019381F30193FD0B
:1054B000859193FF81913F01882309F453C185327F
:1054C00039F493FD859193FF81913F01853229F451
:1054D000B70190E00E94472CE7CF912C212C312C72
:1054E000FFE1F31538F08B3211F190F4803209F1BD
:1054F000833229F137FC3CC020ED280F2A3050F5CB
:1055000036FE20C08AE0989E200D1124922E06C0FF
:105510008D3291F0803371F7689430F8F30193FD88
:10552000859193FF81913F018111DACF21C0689469
:1055300031F8689432F8F2CF689433F8EFCF68947A
:1055400034F8ECCFEAE02E9E200D1124222E689430
:1055500035F8E4CF8E3229F436FC04C1689436F86D
:10556000DDCF8C3619F4689437F8D8CF8836B1F28D
:10557000982F9F7D95549330E0F08336A1F18337C7
:10558000C1F1833509F063C02801F2E04F0E511CD0
:10559000F801C080D180692D70E036FC02C06FEF49
:1055A0007FEFC6010E94312C4C01689437F88201CC
:1055B0000AC00C5F1F4FFFE3F98388248394912C6A
:1055C0006501E89437F833FE2DC0522C8114910404
:1055D00071F5552009F468CFB70180E290E00E9490
:1055E000472C5A94F6CFF801808189830E5F1F4FB4
:1055F000E4CF2801F2E04F0E511CF801C080D180A9
:10560000692D70E036FC02C06FEF7FEFC6010E948B
:105610003C2C4C018201D5CFB70180E290E00E9482
:10562000472C2A942814190409F0B0F7CECFF601BC
:1056300037FC859137FE81916F01B70190E00E94A0
:10564000472C51105A94F1E08F1A9108BFCF84363D
:1056500019F0893609F077C0F80137FE6BC0608118
:105660007181828193810C5F1F4FF32DFF763F2E56
:1056700097FF09C090958095709561957F4F8F4FEA
:105680009F4F689437F82AE030E0A5010E94772CFC
:10569000C82ECA188C2C432C36FE0CC0E89440F857
:1056A000C91440F434FE05C032FC03C0F32DFE7E65
:1056B0004F2E892C44FEAAC0FE01EC0DF11D808105
:1056C000803309F09CC0242D297E422E842D8870C1
:1056D000582E43FCAAC040FEA4C09C2C821418F48F
:1056E0002C0C922C981844FEA6C0B70180E390E0E1
:1056F0000E94472C42FE09C088E790E041FE02C0AC
:1057000088E590E0B7010E94472CC91408F49FC0B7
:10571000CA94D12C9FEFC91AD90ACA0CDB1CF60116
:1057200082916F01B70190E00E94472CAC14BD0438
:10573000B1F74FCF60817181072E000C880B990B58
:105740000E5F1F4F92CFD32CE894D4F82AE030E0BC
:105750008537E1F1232D297FD22E8F36A9F1F0F480
:10576000883551F1F701868197812B960FB6F89411
:10577000DEBF0FBECDBFDF91CF911F910F91FF9084
:10578000EF90DF90CF90BF90AF909F908F907F90E1
:105790006F905F904F903F902F900895803749F021
:1057A000883701F7D4FE02C06894D2F820E130E0D7
:1057B0000DC06894D4F8F6CF34FE03C0822F866003
:1057C000D82E20E132E002C028E030E0F801D7FE18
:1057D0000FC060817181828193810C5F1F4FA50191
:1057E0000E94772CC82ECA183D2CE89437F852CF67
:1057F0006081718190E080E00E5F1F4FF0CF42FC2E
:1058000002C0839463CF8394839460CF842D867881
:1058100009F45CCFF6CFB70180E290E00E94472CFC
:1058200083948214C0F3512C5ECF522C58188214EA
:1058300008F459CFF8CF842D867809F466CF8BE22F
:1058400041FE80E247FC8DE2B70190E05CCFB701FA
:1058500080E390E00E94472C9A9457CF8FEF9FEF00
:1058600084CFFC010590615070400110D8F78095FD
:1058700090958E0F9F1F0895FC016150704001901C
:105880000110D8F7809590958E0F9F1F08950F9364
:105890001F93CF93DF93182F092FEB018B8181FD8D
:1058A00009C01FEF0FEF812F902FDF91CF911F9134
:1058B0000F91089582FF14C02E813F818C819D81BC
:1058C000281739073CF4E881F981CF0101969983C3
:1058D000888310838E819F8101969F838E83E3CF7F
:1058E000E885F985812F1995892BA1F3DACFFA0183
:1058F000AA27283051F1203181F1E8946F936E7F0F
:105900006E5F7F4F8F4F9F4FAF4FB1E03ED0B4E0FF
:105910003CD0670F781F891F9A1FA11D680F791F40
:105920008A1F911DA11D6A0F711D811D911DA11D51
:1059300020D009F468943F912AE0269F1124301961
:10594000305D3193DEF6CF010895462F4770405DFC
:105950004193B3E00FD0C9F7F6CF462F4F70405DAB
:105960004A3318F0495D31FD4052419302D0A9F706
:10597000EACFB4E0A6959795879577956795BA9500
:10598000C9F700976105710508959B01AC010A2EC6
:1059900006945795479537952795BA95C9F7620F9D
:1059A000731F841F951FA01D089512E0CDEBD2E058
:1059B00000E006C0802FFE010E94DF252196011D18
:0E59C000CE3BD10780E00807A9F7F894FFCF8F
:1059CE0000008A0780003F5F7F5E00BC0077010108
:1059DE000008004000000100040000010002000069
:1059EE0001470BF6133C0BCA0A290B5D0A3E0AEB64
:1059FE0009E90AD709B4099A097A0912099C0E0015
:105A0E000000004A035B0588055E037F036903748B
:105A1E0003B3038A039F0334068704480300000080
:105A2E0000A2065B058B05EF06BC059A05AE0500C8
:105A3E00000000F4130000000000000000FC14A899
:105A4E000ED20E02030405060708090A0B0C0D2CD4
:105A5E002D2E363738393A3B3C3D3E3F404142438E
:105A6E0044161718191A1B1C1D1E1F202122232431
:105A7E00000000006514726561645F6269747300F2
:105A8E00726561645F696E7075745F6269747300CC
:105A9E00726561645F696E7075745F726567697354
:105AAE007465727300726561645F726567697374A1
:105ABE0065727300496C6C6567616C206E62206F55
:105ACE00662076616C75657320256420696E2025CD
